:020000040800F2
:10000000C0180020010100089B150008DF1400083B
:10001000991500083B020008C12D000800000000EF
:10002000000000000000000000000000211900088E
:10003000B9020008000000001F1900082319000879
:100040001B0100081B0100081B0100081B01000820
:100050001B0100081B0100081B0100081B01000810
:100060001B0100081B0100081B0100081B01000800
:100070001B0100081B0100081B0100081B010008F0
:100080001B0100081B0100081B0100081B010008E0
:10009000592D00081B0100081B0100081B01000866
:1000A0001B0100081B0100081B0100081B010008C0
:1000B0001B0100081B0100081B0100081B010008B0
:1000C0001B0100081B0100081B0100081B010008A0
:1000D0001B0100081B0100081B0100081B01000890
:1000E0001B0100081B0100081B010008DFF80CD0F1
:1000F00000F066F800480047ED2F0008C018002007
:100100000648804706480047FEE7FEE7FEE7FEE7B1
:10011000FEE7FEE7FEE7FEE7FEE7FEE789190008D7
:10012000ED00000840EA01039B0703D009E008C97D
:10013000121F08C0042AFAD203E011F8013B00F8AC
:10014000013B521EF9D27047D2B201E000F8012BF8
:10015000491EFBD270470022F6E710B513460A4647
:1001600004461946FFF7F0FF204610BD10B50446BF
:1001700004E00B7800F8013B03B1491C521EF8D291
:10018000204610BD421C10F8011B0029FBD1801A2B
:10019000704730B50B46014600202022012409E0BB
:1001A00021FA02F59D4205D303FA02F5491B04FA30
:1001B00002F52844151EA2F10102F1DC30BD000059
:1001C000064C074D06E0E06840F0010394E80700A4
:1001D00098471034AC42F6D3FFF78CFF003200088A
:1001E0002032000870B58C1810F8015B15F0070379
:1001F00001D110F8013B2A1106D110F8012B03E0C0
:1002000010F8016B01F8016B5B1EF9D12B0705D4C7
:100210000023521E0DD401F8013BFAE710F8013B10
:10022000CB1A921C03E013F8015B01F8015B521E2C
:10023000F9D5A142D8D3002070BDFEE70020704759
:100240000020704710B500220449054801F07AFDEE
:100250000449034801F070FD002010BDD8100020B3
:100260004C020020F00C002070B50D4604460146FB
:10027000054801F061FD044801F042FD204629686F
:1002800002F07EFE002070BD4C020020094A10B52D
:10029000D2F81822D2F814220AB1012010BD0A4661
:1002A0000146044801F04EFDBDE81040014801F050
:1002B00089BD00004C0200207047704770B50446AD
:1002C00000F0F6F80546601C02D0044800780444AB
:1002D00000F0EEF8401BA042FAD370BD50000020A1
:1002E0002DE9F84FDFF890A100220AF1040B144623
:1002F00001274FF00F090BF1040E00BF0B6807FA3E
:1003000004F52B40AB4274D1DFF870C14E68A6EB08
:100310000C0866452BD00DDC032E34D005DC36B33B
:10032000012E19D0022E2FD11BE0112E16D0122E25
:100330002AD119E0B8F5881F19D006DCB8F5803F3E
:1003400015D0B8F5801F1FD111E0B8F5001F0ED0F1
:10035000B8F5041F18D10AE0CA6815E0CA68121D72
:1003600012E0CA6808320FE0CA680C320CE08A68F2
:100370002AB1012A4FF0080203D0456104E00422AB
:1003800002E0056100E00022FF2B01D8064601E0F3
:1003900000F104064FEA840501D9A5F12005D6F83D
:1003A00000C009FA05F82CEA080C02FA05F54CEA37
:1003B000050CC6F800C04D68ED0057D5304DAE694C
:1003C00046F00106AE61AD6924F0030605F00105B3
:1003D00000952C4D06EB050CDCF80850A6074FEAFB
:1003E000167809FA08F6B543274EB04202D1002626
:1003F00010E03BE0254EB04201D101260AE0244E38
:10040000B04201D1022605E0224EB04201D10326BE
:1004100000E0042606FA08F62E43CCF808604D6882
:10042000DAF80060ED03554601D51E4300E09E4317
:100430002E604D68DBF80060AD035D4601D51E43BC
:1004400000E09E432E604D68DEF80060ED027546C8
:1004500001D51E4300E09E432E604D68AD020E4D57
:100460002E6801D51E4300E09E432E60641C102CB4
:10047000FFF444AFBDE8F88F000401400000111004
:10048000001002400000014000080140000C014043
:1004900000100140001401400C040140C2684A40B1
:1004A000C26070470AB1016170470904FBE70000B0
:1004B00001488068704700005000002070B50400BB
:1004C0001BD094F83D00002520B984F83C5020460C
:1004D00000F094F8242084F83D002068016821F0A1
:1004E0000101016000F0CAFC404A6168914201D8F4
:1004F0003F4900E03F49884201D2012070BD3E499A
:100500002368B0FBF1F159606368934206D94FF458
:10051000967359434FF47A73B1FBF3F12368491C86
:1005200019626168914210D84900401EB0FBF1F297
:10053000521CC2F30B02042A01D2042022E0B0FBB9
:10054000F1F0401CC0F30B001CE0A368CBB301EB3F
:10055000C10202EB0116421EB2FBF6F2521C42F43B
:100560008042120536D06BB301EBC10202EB0111E0
:10057000401EB0FBF1F0401CC0F30B0040F4804083
:1005800040F400402168C861D4E9070108432168AC
:100590000860D4E90310084321688860D4E90501A4
:1005A00008432168C8602068016841F001010160CA
:1005B0002564202084F83D00256384F83E50002007
:1005C00070BD00E008E001EB4106421EB2FBF6F20E
:1005D000521CC6E70120D5E701EB4101401EB0FBEC
:1005E000F1F0401CC0F30B00CAE70000A086010038
:1005F00080841E0000093D0040420F0010B586B007
:100600000021009101910291039100680F498842F5
:100610001AD10F4CA06940F00800A061A06969469A
:1006200000F008000490C0200090122001900320E8
:1006300003900848FFF754FEE06940F40010E061C1
:10064000E06900F40010049006B010BD00540040B2
:1006500000100240000C01400248816802781144F9
:100660008160704750000020074810B5016841F0D4
:1006700010010160032000F073F8002000F006F87C
:1006800000F024F8002010BD0020024070B50D4D90
:1006900004464FF47A712878B1FBF0F00A490968F2
:1006A000B1FBF0F000F0C2FD48B9102C07D20022D7
:1006B0002146501E00F034F800206C6070BD01200F
:1006C00070BD0000500000205C0000200C4808B500
:1006D000816941F001018161816901F001010091AD
:1006E000C16941F08051C161C06900F08050009043
:1006F0000448416821F0E06141F08061416008BD3B
:10070000001002400000014000F01F020121914052
:100710004009800000F1E020C0F80011704700009F
:10072000F0B40E4B1B680C46C3F30223C3F107055C
:10073000042D00D90425191D072901D2002300E04A
:10074000DB1E012606FA05F1491E214099409E4014
:10075000761E16403143F0BC00F020BF0CED00E0E7
:10076000064900F0070208684FF6FF03184040EA08
:100770000220034A10430860704700000CED00E0BF
:100780000000FA0510B50C0605D501F07F0100EB5D
:100790004110283003E000EB411000F50A7099B2D7
:1007A00032B101228272C180190C0181002010BD7A
:1007B000002282728180F9E7704700EB4112D0F885
:1007C0005C04D26B01F09CBC00EB4112D0F85C04DD
:1007D000D2F83C2201F0E9BC10B504460A460B06EB
:1007E00001F07F0004EB401101D5283101E001F553
:1007F0000A710870D009487094F82804012809D0BB
:10080000012084F82804206802F0C2F8002084F84F
:10081000280410BD022010BD70B50A460446090622
:1008200002F07F0003D504EB4011283103E004EB14
:10083000421101F50A7100258D700870D0094870C9
:1008400094F82804012809D0012084F8280420689D
:1008500002F04CF984F82854002070BD022070BDCD
:1008600001F00F0100EB4110B0F8440280B2704774
:1008700070B504460D460E0601F07F0004EB4011F2
:1008800001D5283101E001F50A710870E8094870C6
:100890000A61CB7094F82804012809D0012084F85B
:1008A0002804206801F044FF002084F8280470BD6B
:1008B000022070BD70B50C4601F07F0500EB4511BC
:1008C000C1E98F230022C1F8442281F8292281F84E
:1008D000285201F50A716206006802F061F90020F1
:1008E00070BD70B50D460446090605F07F0003D5BE
:1008F00004EB4011283103E004EB451101F50A71C6
:1009000001228A700870E809487094F828040128C8
:1009100007D084F82824206802F01DF9680602D068
:1009200006E0022070BD04F22C41206802F0DCF8E1
:10093000002084F8280470BD70B50C4601F07F05D6
:1009400000EB4511C1E90F2300224A64012281F81E
:10095000292001F8285F6206006802F021F90020D2
:1009600070BD10B50446006802F0FCF9000402D521
:10097000204600F023FE206802F0F4F940050CD573
:10098000206830F8441F21F480610180204600F087
:10099000EDF80021204600F0FEF8206802F0E2F9B0
:1009A000400405D5206830F8441F21F480410180BF
:1009B000206802F0D7F9800405D5206830F8441F7C
:1009C00021F400510180206802F0CCF9C00414D554
:1009D000206830F8401F21F004010180206830F8C1
:1009E000401F21F008010180204600F0CCF820686B
:1009F00030F8441F21F480510180206802F0B2F9E0
:100A000000051AD5206830F8401F41F00801018028
:100A1000206830F8441F21F400610180206830F81C
:100A2000401F41F004010180206802F09BF9C0439F
:100A3000C00402D5204600F0E3F8206802F092F9E5
:100A4000800508D5206830F8441F21F4007101802A
:100A5000204600F09CF8206802F084F9C00505D516
:100A6000206830F8441F21F48071018010BD00001F
:100A70002DE9F04186B004004FF0000504D094F851
:100A80002904002620B108E0012006B0BDE8F0816D
:100A900084F82864204600F04BF8032084F82904E9
:100AA000206802F01AF804F1100114228846684602
:100AB000FFF738FB94E80F0001F068FF0021206881
:100AC00002F063F95FF0010704EB451080F829702C
:100AD00000F8285F8581C670066146616D1C8661DD
:100AE0000F2DF1D35FF0000004EB401181F8296273
:100AF00081F82802888681F82B62C1F83862C1F833
:100B00003C62401CC1F840620F28EDD314224146DC
:100B10006846FFF707FB94E80F0001F0CFFF84F869
:100B2000246084F82974206801F0C6FF0020ACE737
:100B300008B500680B49884212D10B48C16941F4DD
:100B40000001C161C069002200F40000009011465C
:100B50001420FFF7E5FDBDE808401420FFF7D4BDE1
:100B600008BD0000005C00400010024010B50446C3
:100B70000121D0F85C0401F0F5FBD4F85C04BDE879
:100B8000104001F0BEBBD0F85C0401F0D9BBD0F836
:100B90005C0401F0DBBB10B5044690F82804012882
:100BA0000BD0012084F8280484F82410206802F077
:100BB000EEF8002084F8280410BD022010BDD0F803
:100BC0005C2400F22C41104601F0DFBB10B5044656
:100BD00090F82804012810D0012084F82804014648
:100BE0002046FFF7E9FD206801F064FF206802F06D
:100BF000ACF8002084F8280410BD022010BD0000CD
:100C000010B50446D0F85C0401F00CFCA069002883
:100C100004D00348016841F00601016010BD0000E6
:100C200010ED00E02DE9F84305460078354CC0078B
:100C300054D0E0690026C00008D4E06940F080503C
:100C4000E061E069012600F0805000902E480168C4
:100C5000C90512D40168804641F480710160FFF734
:100C600027FC074605E000BFFFF722FCC01B6428F5
:100C700023D8D8F80000C005F6D5206A10F44070DB
:100C800021D0A98801F4407181421CD0206A1F49FB
:100C9000012220F440700A6000220A602062C0072E
:100CA00011D0FFF705FC074641F2883808E000BF85
:100CB000FFF7FEFBC11B414502D90320BDE8F883C5
:100CC000206A8007F4D5206A696820F440700843E0
:100CD00020621EB1E06920F08050E0612878800732
:100CE00005D56068A96820F4404008436060287812
:100CF000C00605D56068E96820F48000084360609C
:100D00000020DBE700100240007000404004424237
:100D10002DE9F047DFF8548105460E46D8F800006B
:100D200000F00700B0420CD2D8F8001021F0070103
:100D30003143C8F80010D8F8000000F00700B042B6
:100D40006FD128684A4C810712D5400703D56068E7
:100D500040F4E06060602878000703D5606840F4E4
:100D6000605060606068A96820F0F000084360602F
:100D70002878C00744D06868012816D02168022866
:100D800016D0890700294CDA616821F0030101437C
:100D90006160FFF78DFB6968074641F288300129E1
:100DA0000ED00229814618D026E021688903E9E7A0
:100DB0008901E7E7FFF77CFBC11B494501D918E032
:100DC00081466068C0F381000128F3D118E000BFBC
:100DD000FFF76EFBC11B49450BD86068C0F381006B
:100DE0000228F5D10CE000BFFFF762FBC11B4945AB
:100DF00002D90320BDE8F087606810F00C0FF3D132
:100E0000D8F80010404601F00701B1420BD9016843
:100E100021F0070131430160006800F00700B04293
:100E200001D00120E6E72878400705D56068E96829
:100E300020F4E060084360602878000706D5606809
:100E4000296920F4605040EAC100606000F036F883
:100E50006168084AC1F30311515CC8400649086043
:100E60000020FFF713FC0020C4E700000020024030
:100E700000100240E83100085C00002004480549E9
:100E800000684968044AC1F30221515CC8407047B8
:100E90005C00002000100240F831000804480549B9
:100EA00000684968044AC1F3C221515CC8407047D8
:100EB0005C00002000100240F831000812A185B04B
:100EC0000FC98DE80F0014A0144A006804905168FF
:100ED000134801F00C03042B10D0082B0ED1C1F3E2
:100EE0008343C9031DF803000AD5516804AAC1F35E
:100EF0004041515C0A4A5043B0FBF1F005B07047E5
:100F000008494843FAE700000203040506070809F8
:100F10000A0B0C0D0E0F1010010200000010024011
:100F200000127A0000093D002DE9F84F04460078D0
:100F3000B94DC00748D06868C0F38100012807D0C8
:100F40006868C0F38100022809D16868C00306D52B
:100F50002868800338D5606800286FD034E0606866
:100F6000B0F5803F0BD010B1B0F5A02F11D028689C
:100F700020F480302860286820F4802002E028686F
:100F800040F480302860606888B1FFF791FA064627
:100F900009E0286840F480202860F0E7FFF788FA2D
:100FA000801B642875D828688003F7D50CE0FFF70C
:100FB0007FFA064605E000BFFFF77AFA801B642837
:100FC000F0D828688003F7D42078944E80074FF03B
:100FD00001094FF000083BD5686810F00C0F07D0EE
:100FE0006868C0F38100022809D16868C00306D48C
:100FF0002868800714D5206901281FD110E02069D6
:10100000B0B1C6F80090FFF753FA074605E000BFFD
:10101000FFF74EFAC01B0228C4D828688007F7D50E
:101020002868616920F0F80040EAC10028600FE0FC
:10103000C6F80080FFF73CFA074606E0E9E000BF8B
:10104000FFF736FAC01B022823D828688007F7D498
:10105000207800072CD57248A169D9B1C0F800905A
:10106000FFF726FA074604E0FFF722FAC01B022822
:101070000FD8686A8007F7D56A484FF4FA510068BC
:10108000B0FBF1F0009000BF0098411E0091FAD231
:101090000EE080E0C0F80080FFF70AFA074604E09F
:1010A000FFF706FAC01B022875D8686A8007F7D4D4
:1010B0002078400760D5E8690027C00008D4E869B7
:1010C00040F08050E861E869012700F0805000900E
:1010D00055480168C90513D40168834641F48071FD
:1010E0000160FFF7E5F9824606E000BFFFF7E0F98F
:1010F000A0EB0A0064284ED8DBF80000C005F5D547
:10110000E06801280AD008B1052813D0286A20F029
:1011100001002862286A20F0040002E0286A40F0FA
:1011200001002862E06841F2883B98B1FFF7C0F9FE
:1011300082460BE0286A40F004002862EEE700BF18
:10114000FFF7B6F9A0EB0A0159455AD8286A80077B
:10115000F6D50CE0FFF7ACF9824605E0FFF7A8F9F9
:10116000A0EB0A0159454CD8286A8007F6D41FB174
:10117000E86920F08050E861E06988B36968C1F3EC
:101180008101022945D00228C6F8608004D0FFF70B
:101190008FF9044638E034E0FFF78AF9074604E0A7
:1011A000FFF786F9C01B02282BD828688001F7D4E6
:1011B000206AB0F5803F05D16868A16820F400304E
:1011C00008436860D4E908010843696821F4741190
:1011D00008436860C6F86090FFF76AF9044606E0C5
:1011E00015E000BFFFF764F9001B022809D8286842
:1011F0008001F7D50BE000BFFFF75AF9001B02286A
:1012000002D90320BDE8F88F28688001F4D40020BB
:10121000F8E70120F6E7000000100240000042421B
:10122000800442425C0000200070004010B5401E67
:10123000B0F1807F01D3012010BD4FF0E024606148
:101240000F21601700F0AAF90020A061072020619B
:10125000002010BD70B5040004D094F839000025BA
:1012600010B106E0012070BD84F83850204600F02F
:1012700023F8242084F839002068C16821F4005143
:10128000C160204600F0A4FB2068016921F4904170
:1012900001612068416921F02A0141612068C1682B
:1012A00041F40051C160E563202084F8390084F8DE
:1012B0003A00002070BD000030B585B000240094D5
:1012C000019402940394244D0368244802210322CC
:1012D000AB421AD1C36943F40033C361C36903F459
:1012E00000330493836943F00403836180691C4DD8
:1012F00000F0040004900420CDE900010392694647
:101300002846FEF7EDFF08201CE0164DAB4220D129
:10131000C36943F48023C361C36903F48023049346
:10132000836943F0080383618069039200F0080039
:1013300004902815CDE900010B4D69462846FEF7BB
:10134000CFFFE814CDE90004694628460294FEF771
:10135000C7FF05B030BD000000440040001002404F
:101360000008014000480040000C01402DE9F8430E
:10137000044690F83A00994616460D4620284FD16B
:1013800095B18EB194F83800012849D0012084F835
:1013900038000027E763222084F83A00FFF788F836
:1013A000A6858046E68531E00120BDE8F883E08D22
:1013B000401EE085A0684346B0F5805F4FF0000214
:1013C0004FF020012046CDF8009004D000F0B8FB8B
:1013D00098B10320E9E700F0B3FB0028F9D12069B8
:1013E00000282068406803D0C1B225F8011B0DE039
:1013F000C0F3080125F8021B08E0206900282068D6
:10140000406801D000F07F0005F8010BE08D002856
:10141000CDD1202084F83A0084F838700020C4E749
:101420000220C2E72DE9F843044690F839001F4630
:1014300016460D46202850D1A5B19EB194F838002B
:1014400001284AD0012084F838004FF00008C4F881
:101450003C80212084F83900FFF72AF8A6848146D1
:10146000E68426E00120BDE8F883E08C401EE0849D
:10147000A0684B46B0F5805F4FF000024FF080014E
:101480002046009703D000F05BFBE8B90DE000F0C8
:1014900057FBC8B928882168C0F308004860206954
:1014A00008B16D1C05E0AD1C03E0216815F8010BC7
:1014B0004860E08C0028D8D14B46002240212046CD
:1014C000009700F03DFB08B10320CCE7202084F812
:1014D000390084F838800020C5E70220C3E7FEE722
:1014E00070B586B000241C480094019402940394C3
:1014F000816941F010018161816901F0100104915D
:10150000816941F020018161816901F0200104912C
:10151000816941F004018161816901F00401049154
:10152000816941F00801816180690C4E00F008007A
:101530004FF400550490002229463046FEF7B2FFD2
:1015400001200095CDE90104022003906946304650
:10155000FEF7C6FE06B070BD00100240001001404C
:1015600010B500220849094800F095FD08490748D0
:1015700000F085FF0749054800F0D6FBBDE81040A4
:10158000024800F0C9BF0000000000204C0200200B
:101590004001002034000020FEE770470907090ED3
:1015A000002806DA00F00F0000F1E02080F8141D9A
:1015B000704700F1E02080F8001470472DE9FC5FCF
:1015C0004FF000080446ADF80480ADF8008048F6FE
:1015D0000F7B4FF002094FF4806692E1BDF80410D2
:1015E00011F00F072BD030F82710ADF80010BDF820
:1015F0000010090478D530F8272040F68F710A4092
:1016000020F8272004EB471595F8320205F50A75F6
:101610000028206869D0297830F8212052047DD52F
:10162000B0F8503009EBC101194406EB4101415AB1
:10163000C1F309015FEA010A71D0EA88D0E0BDF880
:101640000410C9062AD4018801EA0B010180206830
:1016500004F12805B0F850202B7809EBC3011144A0
:1016600006EB4101405AC0F309006064E16B084495
:10167000E06300212046FFF7A0F894F8240000283A
:10168000ABD0A8690028A8D194F82400216840F0C4
:101690008000A1F84C0084F8248032E1018804F530
:1016A0000A75ADF80010BDF8001009051ED5B0F898
:1016B00050302978062202EBC101194406EB4101A2
:1016C000405A04F22C41C0F30903EB61AA88206858
:1016D00001F04CFB2068018840F68F7211400180B8
:1016E0002046FFF76CFA0CE1A0E055E0BDF80010D1
:1016F0000904D2D5028840F68F710A400280206822
:10170000B0F850302978062202EBC101194406EBEB
:101710004101405A83059B0DEB6101E051E063E01C
:1017200008D0AA886969206801F020FBE969686926
:101730000844686100212046FFF746F82068B0F8A9
:101740005010891D06EB4101014428693E280CD93F
:10175000C0F34F12C00601D1521E92B24FF6FF7075
:1017600000EA822040F4004009E0C0F34F02C007C5
:1017700001D0521C92B24FF6FF7000EA822008603E
:10178000216808884BF68F72104080F4405048F270
:10179000800210430880B4E0B0F850202B78062176
:1017A00001EBC301114406EB4101415AC1F30901A8
:1017B0005FEA010A24D0AA885346696901F0D6FA83
:1017C0001EE0B0F85020062303EBC101114406EBE4
:1017D0004101415AC1F309015FEA010A04D02A8993
:1017E0005346696901F0C2FA2978206830F821303F
:1017F00048F68F72134048F2C002134320F821309C
:10180000E96901EB0A00E861696901EB0A026A61B2
:10181000AB6913B12869504504D929782046FEF7F1
:10182000D3FF03E029782046FFF744F8BDF8000015
:10183000000666D5206804EB471530F8271001EA4A
:101840000B0120F8271095F8320028350028206871
:1018500012D0297830F82120B0F8503052061ED529
:1018600009EBC101194406EB4101405A83059B0D68
:10187000EB6124D0EA881EE0B0F850302A7809EBFA
:10188000C201194406EB4101405A83059B0DEB61EF
:1018900021D0AA886969206801F07FFA1BE006223E
:1018A00002EBC101194406EB4101405A83059B0D2F
:1018B000EB6104D02A896969206801F06EFA297801
:1018C000206830F8212048F68F731A404CF28003CC
:1018D0001A4320F821202068B0F850202B7809EB1B
:1018E000C301114406EB4101405AC0F30900E8610D
:1018F00069690A186A612978AB69204663B1FFF704
:101900001BF82068B0F84410ADF8041009043FF546
:1019100065AE0020BDE8FC9FFEF74FFFF1E7704782
:101920007047FEF799BE30B593B028216846FEF7A0
:1019300012FC14210AA8FEF70EFC002401200F94CB
:1019400010941194010412948DE8130004904FF444
:10195000E010CDE90810022507956846FFF7E4FA84
:101960000F20CDE90A056802CDE90C4002210AA842
:101970000E94FFF7CDF910200F9012940FA8FFF7E7
:1019800051F913B030BD00000D48016841F001016C
:10199000016041680B4A1140416001680A4A1140E8
:1019A0000160016821F480210160416821F4FE0199
:1019B00041604FF41F0181600449C0030860704713
:1019C000001002400000FFF8FFFFF6FE08ED00E007
:1019D0002DE9F041044600680169E26821F44051B4
:1019E000114301612169A0680843616908432168C6
:1019F000CA6841F20C639A430243CA602068416995
:101A0000A26921F44071114341614C492068642569
:101A1000322688423CD1FFF741FA00EBC00101EBCE
:101A2000001061688900B0FBF1F7FFF737FA00EBAF
:101A3000C00101EB00106168B0468900B0FBF1F015
:101A4000B0FBF5F06FF01801484307EB800106EB9F
:101A50000110B0FBF5F000F0F006FFF71FFA00EB05
:101A6000C00101EB001061688900B0FBF1F0B0FB30
:101A7000F5F006EB0016FFF711FA00EBC00101EBE1
:101A8000001061688900B0FBF1F7FFF707FA3BE04F
:101A9000FFF7F4F900EBC00101EB00106168890069
:101AA000B0FBF1F7FFF7EAF900EBC00101EB001022
:101AB0006168B0468900B0FBF1F0B0FBF5F06FF063
:101AC0001801484307EB800106EB0110B0FBF5F06D
:101AD00000F0F006FFF7D2F900EBC00101EB0010B7
:101AE00061688900B0FBF1F0B0FBF5F006EB001681
:101AF000FFF7C4F900EBC00101EB00106168890039
:101B0000B0FBF1F7FFF7BAF900EBC00101EB0010F1
:101B100061688900B0FBF1F0B0FBF5F06FF01801DF
:101B2000484307EB800108EB0110B0FBF5F021689A
:101B300000F00F0030448860BDE8F08100380140BB
:101B40002DE9F041984617460E460446069D1DE0D5
:101B5000681C1BD02DB1FEF7ABFCA0EB0800A8421F
:101B600014D92068C16821F4D071C160206841692E
:101B700021F001014161202084F8390084F83A0005
:101B8000002084F838000320BDE8F0812068006858
:101B900036EA000004D00020B842D9D00020F3E794
:101BA0000120F9E7D0F8180220B10021C0F8141282
:101BB000084670470220704770B50546D0F81842B5
:101BC00000F028FBC4F80C02D5F8180248B1D5F88B
:101BD0001C12D4F80402CA6804F50371904700206F
:101BE00070BD022070BD70B504460025812100F053
:101BF00077FA0121204600F073FA8221204600F096
:101C00006FFAD4F8180250B1D4F81C0204F5067427
:101C100040688047206800F085FD0020206028464D
:101C200070BD10B5D0E9864159B194F80002FF2883
:101C300007D08B6894F8012221469847FF2084F84A
:101C40000002002010BD00000A21018000487047FA
:101C5000680000204321018000487047B800002040
:101C60004321018000487047740000204321018017
:101C700000487047FC0000202DE9F0410446007C3C
:101C800000254FF4007670B34023022281212046C4
:101C900000F014FB402302220121204600F00EFB3D
:101CA000082303228221204600F008FB4FF407702E
:101CB00000F03AFDC4F81802F0B10746D4F81C024F
:101CC000006880470020C7F81402C7F81802207C7B
:101CD000D7F8042290B140230121204600F001FBF7
:101CE0002846BDE8F081FFE73346022281212046E5
:101CF00000F0E4FA3346CEE70125F1E73346EBE79F
:101D000010B5D0F8181269B1027C002AD1F804226B
:101D100005D04023012100F0E4FA002010BD4FF46B
:101D20000073F7E7022010BD02460220002902D00E
:101D30000020C2F81C127047D0F81802C0F8041234
:101D400000207047D0F81802C0F81022C0F808121E
:101D50000020704770B50646D0F8185208780C4637
:101D600010F0600121D0202927D1E288AAB1000615
:101D7000607807D5D6F81C128B6829469847E28808
:101D8000294617E085F80002A07985F80102E2886B
:101D90002946304600F050F80FE0D6F81C12607863
:101DA00000228B682146984707E060780A2804D112
:101DB00003490122304600F059F8002070BD0000B0
:101DC0006400002010B5D0F8181289B1D1F814229F
:101DD0000AB1012010BD0122C1F81422B1F810226D
:101DE00093B2D1F80822812100F025FB002010BD1C
:101DF000022010BD10B5D0F8142252689047002080
:101E000010BD134610B50A46002100F06AFA002002
:101E100010BD134610B50A46002100F00CFB00204F
:101E200010BD10B50446802100F0DCFA2046BDE864
:101E30001040002100F0D6BA10B50323C0F80821E5
:101E4000C0F8F431C0F80C2113460A46002100F016
:101E500048FA002010BD10B505210023C0F8F41188
:101E60001A46194600F03DFA002010BD10B50223B5
:101E70008261C0F8F431C26113460A46002100F0C5
:101E8000DAFA002010BD10B504210023C0F8F411C7
:101E90001A46194600F0CFFA002010BD10B50A46C8
:101EA000024903A000F0D4F8004810BDF00A002059
:101EB00043444320436F6E66696700001220088028
:101EC000004870472000002010B50A46024903A0D0
:101ED00000F0BEF8004810BDF00A00204344432043
:101EE000496E7465726661636500000004200880B5
:101EF000004870471C00002010B50A46024903A0A4
:101F000000F0A6F8004810BDF00A002053544D69B7
:101F100063726F656C656374726F6E6963730000E2
:101F200010B50A46024903A000F092F8004810BD1F
:101F3000F00A002053544D33322056697274756193
:101F40006C20436F6D506F727400000010B50A462C
:101F5000024903A000F07CF8004810BDF00A002000
:101F6000303030303030303030303141000000001F
:101F7000F8B5044648880D46010A08294BD2DFE827
:101F800001F04A0409174A4A4048D4F81012207C4C
:101F90000A6832E0207C02260028D4F8140205D01A
:101FA000C16A684688470146467041E0816AF8E7A1
:101FB000C0B206282FD2DFE800F003080D12171C6C
:101FC000D4F81012207C4A6817E0D4F81012207C54
:101FD0008A6812E0D4F81012207CCA680DE0D4F8A8
:101FE0001012207C0A6908E0D4F81012207C4A699B
:101FF00003E0D4F81012207C8A69694690470146B4
:1020000016E0207C38B9D4F81402416B6846884742
:10201000F5E7207C20B129462046FFF702FFF8BDF6
:10202000D4F81402016B68468847014607204870BF
:10203000BDF800000028F2D0EA88002AEFD08242E2
:1020400000D90246ADF800202046FFF70FFFF8BD8B
:1020500070B5002300281DD00446002502E06D1C49
:10206000EDB2641C2678002EF9D1022404EB45045D
:102070001480CC545B1C0322CA5400245B1C06E071
:10208000CA545B1CDAB28C54521CD3B2401C027886
:10209000002AF5D170BD10B580B1D0F8143213B15B
:1020A0000023C0F8143209B1C0F81012012180F8E1
:1020B000FC11027000F0B2F8002010BD022010BD2B
:1020C00010B50024D0F82002FEF7A6FB30B101289D
:1020D00001D0022801D0022400E00124204610BDD6
:1020E00010B50024D0F82002FEF776FB30B10128AD
:1020F00001D0022801D0022400E00124204610BDB6
:102100002DE9F0411746044641B1D4F81402426962
:102110008AB394F8FC01032842D043E0D4F8F411C8
:10212000002504F11400022933D1D0E902639E4254
:1021300007D9F31A83609AB239462046FFF769FE41
:1021400012E04068B0FBF3F103FB1101A1B9984222
:1021500012D3D4F8F81188420ED20022114620463C
:10216000FFF757FEC4F8F85100231A4619462046D7
:1021700000F0B7F80DE012E0D4F81402C16829B1FC
:1021800094F8FC01032801D1204688472046FFF738
:1021900062FE94F80002012804D184F8005201E0A4
:1021A000204690470020BDE8F08170B515460446F2
:1021B00041B1D4F8140282693AB394F8FC010328BF
:1021C00024D025E0D4F8F41104F5827003291FD13E
:1021D000D0E902218A420BD9531A83600846834210
:1021E00000D303469AB229462046FFF70AFE0FE0C5
:1021F000D4F81402016929B194F8FC01032801D133
:10220000204688472046FFF73EFE01E020469047E3
:10221000002070BDD0F82002FEF722BB10B51E4989
:102220000446C1F85C04C0F820121C48086008206D
:102230004860022088600320C86000208861C8616F
:1022400008620846FEF714FC08B1FEF736F80022D3
:10225000D4F820021823114604F50874FEF792FA08
:102260005823002280212068FEF78CFAC023002228
:1022700081212068FEF786FA4FF48873002201213D
:102280002068FEF77FFA4FF48073002282212068D5
:10229000FEF778FA002010BD90060020005C004098
:1022A0000A06D0F8200201F07F0100EB411002D5B0
:1022B00090F82A00704790F82A02704770B51D46C2
:1022C00013460024D0F820022A46FEF7D1FA30B196
:1022D000012801D0022801D0022400E00124204678
:1022E00070BD10B50024D0F82002FEF7E3FA30B13B
:1022F000012801D0022801D0022400E00124204658
:1023000010BD70B50022044640231146FFF7D6FFEA
:1023100040252B46002280212046C4F81051FFF7AB
:10232000CDFF0120256284F8FC01D4F8180228B101
:10233000D4F814022179426820469047002070BDED
:1023400090F8FD1180F8FC110020704710B590F84E
:10235000FC11032904D1D0F81412C96901B18847CE
:10236000002010BD01740020704710B50024D0F883
:102370002002FEF710FC30B1012801D0022801D064
:10238000022400E00124204610BD70B5044600F58B
:102390000270054600F05FF80120C4F8F401B4F8BB
:1023A0000E02C4F8F80194F8080210F01F010AD0D8
:1023B00001290DD0022910D000F08001204600F044
:1023C00011F8002070BD2946204600F0AAF8F8E771
:1023D0002946204600F08CF9F3E72946204600F014
:1023E00019F9EEE710B50024D0F82002FEF779FACB
:1023F00030B1012801D0022801D0022400E00124DC
:10240000204610BD10B50024D0F82002FEF7DEFBF8
:1024100030B1012801D0022801D0022400E00124BB
:10242000204610BD90F8FC1180F8FD11042180F8C1
:10243000FC110020704710B50024D0F82002FEF7F0
:102440007BFA30B1012801D0022801D0022400E03B
:102450000124204610BD0A7802704A7842708A78BA
:10246000CB7802EB032242800A794B7902EB0322FC
:1024700082808A79C97902EB0121C18070470246C6
:10248000002011B1C2F8141270470220704710B535
:10249000D0F8142202241AB11268904700B900241F
:1024A000204610BD70B50E461A4D89780446297035
:1024B000012928D894F8FC01022802D0032822D14F
:1024C00005E099B10320616084F8FC0109E091B155
:1024D000606888420AD0C1B22046FFF78BFC297899
:1024E00061602046FFF7D3FF02280CD02046BDE8EC
:1024F0007040FFF7C8BC022084F8FC0120466160F0
:10250000FFF778FCF2E731462046BDE87040FFF760
:1025100088BC00006000002010B5FFF773FF0020AA
:1025200010BD2DE9F04100264B78012532460A2BDB
:1025300043D2DFE803F03C584251420805422A27C3
:10254000FFF716FD63E004468888C8B9C888B8B9A3
:10255000887800F07F0794F8FC01032810D084F8F5
:10256000FE7139462046FFF700FF2046FFF78BFC3F
:102570001FB1022084F8FC0149E084F8FC5146E0D8
:1025800020461AE0FFF78EFF41E0CB88012B14D1E3
:1025900090F8FC31022B02D0032B0ED104E08260B4
:1025A000012200F1080114E00122011D11E090F860
:1025B000FC21022A04D0032A02D0FFF732FC26E0D5
:1025C000C560D0F8041209B10321C160022200F1F4
:1025D0000C01FFF74BFC1AE004464888012816D18D
:1025E000C4F804520BE0044690F8FC01022801D024
:1025F0000328C5D14888012809D1C4F80422D4F899
:1026000014028268204690472046FFF73CFC304683
:10261000BDE8F08170B50D4604462878002609799A
:10262000C0F34110012806D06878A0B301281FD05C
:1026300003283FD107E0D4F81402294682682046D7
:102640009047002070BD94F8FC01022817D00328A1
:102650002CD1688828B921B1802902D02046FFF703
:10266000C1FED4F81402294682682046904713E040
:1026700094F8FC01022802D0032817D103E0C9B165
:1026800080291BD116E06888A0B9480604D02046EE
:10269000FFF716FDE5E703E02046FFF7F4FB09E04E
:1026A00094F8FC01022807D003280BD029462046C5
:1026B000FFF7B7FB304670BD4806FBD02046FFF75A
:1026C00091FEF7E7080601F07F0004EB001501D545
:1026D000143501E005F582752046FFF7E1FD00B1F4
:1026E00001202860022229462046FFF7BFFBE1E7D0
:1026F00070B5054690F8FC010C4603280DD12079F1
:1027000001280AD8D5F81402826828469047E08844
:1027100030B92846FFF7B7FB02E02846FFF781FBF8
:10272000002070BD70470000004870477004002012
:102730002DE9F047CC780A7848F68F1334B1012C94
:102740006DD0022C08D0032C13D10BE030F82240BE
:102750001C4044F400730AE030F822401C4020F88A
:10276000224006E030F822401C4044F4C06320F8C8
:1027700022300C7830F8245048F68F72154048F219
:1027800080031D43254320F824508D7A48F6BF79F5
:1027900004274BF68F7A48F2C0044CF28006EDB362
:1027A0000D7830F825C048F280180CEA020C4CEA8B
:1027B000080C20F825C0CD88B0F850C025F00105E0
:1027C00091F800800CEBC80C00EB4C0CCCF80054DA
:1027D0000D89B0F850C025F0010591F8008007EB95
:1027E000C807674400EB4707C7F800544D78002D31
:1027F0000D7830F825704FEA47477DD0002F05DA75
:1028000030F825701740374320F825700D7830F8E0
:1028100025707F0608D530F8257001E024E01DE022
:102820001740274320F825700C7830F824501540C5
:10283000354320F824500C7830F8242002EA0902AD
:102840001A4320F824200A7830F8221001EA0A01FD
:10285000194320F822100020BDE8F08730F822400C
:102860001C4044F4806382E74D78F5B18D88B0F860
:10287000506025F001050F7806EBC70600EB460611
:10288000C6F800540D7830F82560760605D530F886
:1028900025601640264320F825600A7830F822107B
:1028A00001EA090181F02001D2E78C88B0F850508C
:1028B00024F0010491F800C007EBCC073D4400EB85
:1028C0004505C5F80044B0F850400D78062707EBE1
:1028D000C5052C4400EB44070C694FF6FF7C07F557
:1028E00080673E2C0CD9C4F34F15E40601D16D1E50
:1028F000ADB20CEA852400E01EE044F4004407E099
:10290000C4F34F05E40701D06D1CADB20CEA852479
:102910003C600C7830F824506D0405D530F8245014
:102920001540354320F824500A7830F8221001EA87
:102930000A0181F440518BE7002F05DA30F8257049
:102940001740374320F825700D7830F8256076065B
:1029500005D530F825601640264320F825600E780E
:1029600030F826501540254320F826500C7830F8D2
:10297000242002EA0A0282F440521A4320F824205A
:102980000A7830F8221001EA090161E70020704757
:102990002DE9F04391F80A8091F801C00A7848F6D1
:1029A000BF774BF68F7948F2800348F2C0054CF2AE
:1029B000800648F68F74B8F1000F2ED0BCF1000FDE
:1029C00030F822C04FEA4C4C4ED0BCF1000F07DA71
:1029D00030F822C00CEA040C4CEA060C20F822C0A5
:1029E0000A7830F822C05FEA4C6C07D530F822C074
:1029F0000CEA040C4CEA050C20F822C00A7830F8E6
:102A000022502540354320F822500C7830F82420FD
:102A10003A401A4320F824201BE0BCF1000F0ED0EE
:102A200030F82260760605D530F8226026402E4325
:102A300020F822600A7830F8221039400EE030F891
:102A400022506D0405D530F822502540354320F83A
:102A500022500A7830F8221001EA0901194320F8BF
:102A600022100020BDE8F083BCF1000F07DA30F837
:102A700022C00CEA040C4CEA060C20F822C00A78AA
:102A800030F82260760605D530F8226026402E43C5
:102A900020F822600E7830F8262022402A4320F8C1
:102AA00026200C7830F8242002EA09021A4320F884
:102AB0002420BFE7002070470020704700B50121A7
:102AC000A0F840100021A0F84010A0F84410A0F891
:102AD000501000F03AF9002000BD30F8401F21F4FA
:102AE0003D410180002070470020704730B54D788F
:102AF0000A78002D48F68F7430F8225048F280038F
:102B000012D06D0607D530F82250254048F2C00497
:102B1000254320F822500A7830F8221048F6BF7476
:102B2000214081F0300111E06D0407D530F82250CA
:102B300025404CF28004254320F822500A7830F8D2
:102B400022104BF68F74214081F44051194320F834
:102B50002210002030BD10B50A7848F2800352B12F
:102B60004978002930F8221010D048F6BF7421406F
:102B700081F010010FE001884BF6BF72114081F423
:102B8000805181F010011943018007E04BF68F74EA
:102B9000214081F48051194320F82210002010BDFB
:102BA0002DE9F0410D460646896995F801C00023DC
:102BB000AA7A022728690C4648F28008BCF1010F66
:102BC00005D0814252D90446081AA8614FE08142DB
:102BD00003D90446081AA86100E0AB617AB12878ED
:102BE00036F820104906B6F8501007EBC00008442C
:102BF00006EB4000C0F8004412D52A8911E0A3B2C8
:102C0000AA883046696900F0C8F8B6F850002978FB
:102C100007EBC101084406EB4000C0F800441CE08B
:102C2000EA88A3B23046696900F0B7F8687848F6D8
:102C30008F7110B1012807D00FE0287836F82020D6
:102C40000A4048F2C00105E0287836F820200A4002
:102C50004CF280010A4326F82020297836F821001A
:102C600048F6BF72104080F0300067E0AB61062389
:102C70004FF6FF701AB1BCF1000F1BD056E0B6F84A
:102C800050102A783E2C03EBC202114406EB41029D
:102C900002F5806239D9C4F34F11E30632D000BF88
:102CA00000EA812040F4004002E000BF00EA8120F9
:102CB00010603BE0B6F850102A783E2C07EBC202B9
:102CC000114406EB410202F580620BD9C4F34F11A7
:102CD0005FEAC46C01D1491E89B200EA812141F446
:102CE000004108E0C4F34F015FEAC47C01D0491CF5
:102CF00089B200EA8121116069780029BFD00129D9
:102D00000AD013E0491E89B2CAE7C4F34F01E307B2
:102D1000CCD0491C89B2C9E7B6F85000297807EB36
:102D2000C101084406EB4000C0F80044297836F899
:102D300021004BF68F72104080F4405040EA0800AA
:102D400026F821000020BDE8F08130F8401F41F452
:102D50003F410180002070470148FDF702BE00009E
:102D600090060020B0F84400704700005B1C00EBA8
:102D700042005B0800F5806006D000BF30F8042BED
:102D800021F8022B5B1EF9D170470020704711B962
:102D90008021A0F84C100020704710B55B1C00EBA0
:102DA00042005B0800F5806009D011F8012B5B1E22
:102DB00011F8014B42EA042220F8042BF5D110BD92
:102DC000FEE700000FB41CB50246002007AC002946
:102DD0000BD0491ECDE90021054B6A4621460698D5
:102DE00000F018F8009A002111701CBC5DF814FB6B
:102DF000692F000802E008C8121F08C1002AFAD192
:102E000070477047002001E001C1121F002AFBD16A
:102E1000704700002DE9FF4F89B09B46044600250E
:102E200006E025280BD05A460B999047641C6D1C70
:102E300020780028F5D10DB02846BDE8F08F002796
:102E4000B8460122474900E0074314F8013F203B00
:102E500002FA03F00842F7D120782E2819D114F88D
:102E6000010F47F004072A280ED06FF02F022078B8
:102E7000A0F1300109290CD808EB880102EB4101CF
:102E800000EB0108641CF2E70A98641C50F8048BFC
:102E90000A9020780028CED0642808D0692806D06F
:102EA00075281ED05A460B9990476D1C58E00A9918
:102EB0004FF00A0901C90A91002802DA40422D2187
:102EC00002E0390504D52B218DF82010012103E003
:102ED000F90704D02021F7E78A4608AE0DE000216B
:102EE000FAE70A994FF00A0901C90A91F7E749463A
:102EF000FDF74FF9303106F8011D0028F7D1ADEB91
:102F0000060000F12009780701D44FF00108C845F8
:102F100002DDA8EB090000E000208046002706E063
:102F200008A85A46C05D0B9990476D1C7F1C5745F9
:102F3000F6DB04E030205A460B9990476D1CB8F13F
:102F40000001A8F10108F5DC05E016F8010B5A466E
:102F50000B9990476D1CB9F10001A9F10109F4DC4E
:102F6000641C65E7092801004A68002A06D00A683F
:102F7000531C0B6010704868401E4860704700008A
:102F8000024A01231370C2E9011070474400002077
:102F900030B5044687B00D460846FDF7F3F882B217
:102FA0004FF47A7329462046FEF73CFA04460AA0FD
:102FB00000F0E8F82846FDF7E5F8034607A21721D8
:102FC0006846FFF7FFFE684600F0DCF8284600F090
:102FD000D9F807B0204630BD3E3E00004C454E4774
:102FE00054483A202564202D3E200000C4B0FDF74F
:102FF0003BFBFEF798FCFEF773FA45484349002473
:1030000001604449C0E901144FF48041C0E9034123
:1030100044618461C4610462FDF750FA3C483E4952
:1030200054304FF4E1350160C0E901540C26C4600E
:10303000C0E904468461C461FEF70CF9344837499D
:1030400094300160C0E90154C460C0E90446846161
:10305000C461FEF7FFF8FEF783FA042040900220D7
:1030600041900320CDE942402D4C40A92046FDF778
:1030700037F9082040901220419040A92046FDF7E2
:103080002FF96514274EA41521466846FDF763F80D
:1030900029463046FDF702FAFF21684600F084F821
:1030A0000028F1D01A4869465430FFF771FF012813
:1030B00004D0022804D0032804D006E01AA002E0BD
:1030C0001BA000E01CA000F05DF821466846FDF75B
:1030D00042F80F484FF47A73042269465430FEF7E1
:1030E00045F9012804D0022804D0032804D006E0C2
:1030F00014A002E017A000E01AA000F043F8684610
:1031000000F040F81CA000F03DF8BDE7005400407E
:1031100078010020A08601000044004000480040E3
:1031200000080140001001404552524F520D0A0064
:10313000425553590D0A000054494D454F55540D01
:103140000A00000052454349455645204552524F1A
:10315000520D0A00524543494556452042555359A0
:103160000D0A0000524543494556452054494D45F6
:103170004F55540D0A0000002D2D2D2D2D2D2D0DF8
:103180000A00000070B5054600242846FCF7FAFF47
:1031900081B22846FDF77AF8012804D1FDF78EF8B0
:1031A000641C642CF1DB70BD2DE9F0410D4C0D4623
:1031B00006460027207860B16268AA4200D92A46F4
:1031C000002020703046A168FCF7D0FF0120BDE848
:1031D000F0810A20FDF772F87F1C642FEADB0020E3
:1031E000F5E700004400002000000000000000009F
:1031F000010203040607080900000000010203049D
:10320000203200080000002078010000E4010008DE
:10321000E43200087801002048170000042E00085E
:1032200013BD1E1B08ED041AF90413211F1B084DC2
:10323000041A9D0C1AC9041704030904120114028C
:10324000020216408304405726020102030113457F
:10325000021B0841041A3D041A6904C1191F118296
:103260001084A24A04130A0632022A40201C0902D2
:10327000434B111CC032091F1B01020B13052416FE
:103280001001052401100901042402020524061777
:103290000107058203081C10090481320A1D070575
:1032A0000102432C070581070938442A40072A8177
:1032B00007112B0907440A2204440A16FF44137914
:1032C0001C1408E71B1408551D42081A23101AA5E0
:1032D000101AB904C11A61181A55041A6D041A4952
:0432E00004000000E6
:04000005080000ED02
:00000001FF
